:100000000C945F010C9490010C9490010C9490015D
:100010000C9490010C9490010C9490010C9490011C
:100020000C9490010C9490010C9490010C9490010C
:100030000C9490010C9490010C9490010C949001FC
:100040000C9490010C9417100C9490010C94900156
:100050000C9490010C9490010C9490010C945F0D01
:100060000C9490010C94330E0C94090E0C94900196
:100070000C9490010C9490010C9490010C949001BC
:100080000C94E90F0C9490010C9490010C94900145
:100090000C94D30D0C94A90D0C9490010C94690E42
:1000A0000C9490010C9490010C94BB0F0C94900153
:1000B0000C9490010C9490010C9490010C948D0F71
:1000C0000C9490010C9490010C9490010C9490016C
:1000D0000C9490010C9490010C9490010C9490015C
:1000E0000C9490010C94470B0C94DA040C94D304F8
:1000F0000C9496020C94E00A0C947A020C944E0232
:100100000C94540B0C9488020C9484020C943A0BBB
:100110000C94F10A0C9481100C941F0B0C940E0398
:100120000C946D030C940D030C9453020C94A002D8
:100130000C94AF030C9465020C943C030C94050BD7
:100140000C9469020C945F030C940F030C94F80A4E
:100150000C949A020C947E020C9449040C944B0368
:100160000C949E0A0C9474020C94120B0C94A4022E
:100170000C94AA0A0C9492020C94B0040C94C0043F
:100180000C942D0B0C94E70A0C946D020C9407054B
:100190000C941D060C94DB160C94FC030C94EE0AD4
:1001A0000C94B1040C94D90A0C94AE070C9471020F
:1001B0000C948C0200002100240027002A002D004E
:1001C0003000330001010000040107010A010000B2
:1001D0002200250028002B002E00310034000201EF
:1001E0000000050108010B010505050507050808C4
:1001F0000808020202020A0A0808040404040101B1
:1002000001010101010103030303030303030407C5
:1002100007070C0C0C0C0C0C0C0C0202020206065C
:100220000606060606060B0B0B0B0B0B0B0B01024F
:1002300010202008081020401020408002010201F8
:1002400008040201010204081020408080402010B0
:100250000804020180040201804020100804020109
:100260000804020101020408102040800102040871
:100270001020408000000A0B02090C0D0E08070335
:100280000401000000000000000000000000000069
:10029000000000000000000000000000000000005E
:1002A000121110000000000000000000000000001B
:1002B000000000000000000000008110DB16112487
:1002C0001FBECFEFD1E2DEBFCDBF00E00CBF12E01A
:1002D000A0E0B2E0ECE6F8E300E00BBF02C007905C
:1002E0000D92A43EB107D9F726E0A4EEB2E001C01A
:1002F0001D92A635B207E1F711E0CEE5D1E000E0AE
:1003000006C021970109802FFE010E94E319CD3517
:10031000D10780E00807A9F70E941F120C94241C43
:100320000C940000FC01A089B18982E08C93A48523
:10033000B5851C92A685B7858FEC8C93108EA48909
:10034000B58986E08C93A289B3898C9180618C9366
:10035000A289B3898C9188608C93A289B3898C918E
:1003600080688C930288F389E02D80818F7D808363
:1003700008958F929F92AF92BF92FF920F931F9317
:10038000CF93DF93F0904F062FE22F1508F44CC067
:100390002091510608E512E0021B110927FD139573
:1003A000000F111F000F111F20915006C8E8D0E068
:1003B000C21BD10927FDD395CC0FDD1FCC0FDD1F4C
:1003C0004E010D2E000CAA08BB089801012E000C4E
:1003D000440B550B281939094A095B09DC010E94B5
:1003E000761824EB30E040E050E00E944C18820E7A
:1003F000931EA41EB51E8C169D062CF0E8018016D7
:1004000091060CF4E4012297CC0FDD1F2FB7F8946E
:100410008F2D90E0FC01EE0FFF1FE80FF91FEF504A
:10042000FB4FD283C1832FBFDF91CF911F910F91DB
:10043000FF90BF90AF909F908F900895282F30E04D
:10044000F901EC58FD4F9491F901E25DFD4F4491A3
:1004500028513E4FF9012491222309F435C09923F4
:1004600011F191509231F8F4E92FF0E08827E45C23
:10047000FD4F8F4F0C94E3196D0271024E0265021D
:100480006902530274027A027E02840288028C029C
:100490009202960253029A02A002A4028091800066
:1004A0008F7780938000E22FF0E0EE0FFF1FE25382
:1004B000FE4FA591B4918FB7F894EC91611148C0AB
:1004C00040954E234C938FBF0895809180008F7D7F
:1004D000E8CF80918000877FE4CF84B58F7784BD9B
:1004E000E2CF84B58F7DFBCF8091B0008F77809372
:1004F000B000D9CF8091B0008F7DF9CF809190006E
:100500008F7780939000CFCF809190008F7DF9CF2F
:1005100080919000877FF5CF8091A0008F778093A6
:10052000A000C1CF8091A0008F7DF9CF8091A00065
:10053000877FF5CF809120018F7780932001B3CF03
:10054000809120018F7DF9CF80912001877FF5CFA9
:100550004E2BB8CF3FB7F8948091A7039091A80392
:10056000A091A903B091AA0326B5A89B05C02F3F6F
:1005700019F00196A11DB11D3FBFBA2FA92F982FC9
:100580008827BC01CD01620F711D811D911D42E0C4
:10059000660F771F881F991F4A95D1F708958F928C
:1005A0009F92AF92BF92CF92DF92EF92FF924B0158
:1005B0005C010E94AA026B017C010E94AA026C19D4
:1005C0007D098E099F09683E734081059105A8F356
:1005D00021E0821A9108A108B10888EEC80E83E0D4
:1005E000D81EE11CF11C81149104A104B10429F767
:1005F000FF90EF90DF90CF90BF90AF909F908F9043
:1006000008952FB7F8946091A3037091A40380918B
:10061000A5039091A6032FBF089508950895AF9262
:10062000BF92CF92DF92EF92FF920F931F93CF93DF
:10063000DF936C017B018B01040F151FEB015E0141
:10064000AE18BF08C017D10759F06991D601ED91D6
:10065000FC910190F081E02DC6011995892B79F765
:10066000C501DF91CF911F910F91FF90EF90DF9027
:10067000CF90BF90AF900895FC01538D448D252FEE
:1006800030E0842F90E0821B930B541710F0CF962C
:10069000089501970895FC01918D828D981761F05E
:1006A000A28DAE0FBF2FB11D5D968C91928D9F5F75
:1006B0009F73928F90E008958FEF9FEF0895FC0154
:1006C000918D828D981731F0828DE80FF11D858D07
:1006D00090E008958FEF9FEF0895FC01918D228D9A
:1006E000892F90E0805C9F4F821B91098F7399271F
:1006F00008958BEA93E00E946D0321E0892B09F4B1
:1007000020E0822F089588E494E00E946D0321E0A8
:10071000892B09F420E0822F0895FC01A48DA80FF5
:10072000B92FB11DA35ABF4F2C91848D90E0019633
:100730008F739927848FA689B7892C93A089B18953
:100740008C91837080648C93938D848D981306C0F4
:100750000288F389E02D80818F7D80830895EF9258
:10076000FF920F931F93CF93DF93EC0181E0888F6B
:100770009B8D8C8D98131AC0E889F989808185FF3B
:1007800015C09FB7F894EE89FF896083E889F989DD
:1007900080818370806480839FBF81E090E0DF91DF
:1007A000CF911F910F91FF90EF900895F62E0B8D32
:1007B00010E00F5F1F4F0F731127E02E8C8D8E11ED
:1007C0000CC00FB607FCFACFE889F989808185FF54
:1007D000F5CFCE010E948D03F1CFEB8DEC0FFD2FF5
:1007E000F11DE35AFF4FF0829FB7F8940B8FEA890F
:1007F000FB8980818062CFCFCF93DF93EC01888D1E
:100800008823B9F0AA89BB89E889F9898C9185FD8B
:1008100003C0808186FD0DC00FB607FCF7CF8C9119
:1008200085FFF2CF808185FFEDCFCE010E948D0341
:10083000E9CFDF91CF91089580E090E0892B29F0F6
:100840000E94830381110E94000080E090E0892BC8
:1008500029F00E94790381110E94000080E090E05D
:10086000892B49F080E090E0892B29F00E9400005C
:1008700081110E94000080E090E0892B49F080E027
:1008800090E0892B29F00E94000081110C94000057
:100890000895089520912903260F3327331F21320D
:1008A0003105ECF420917203FC0190E080E02430EB
:1008B00069F082E00895A09129032191AC01475F7E
:1008C0005C4FA40FB52FB11D2C930196861798F39A
:1008D00080912903680F6093290380E0089581E0E7
:1008E00008951092720381E08093710310924C037B
:1008F00061E084E10E941E0261E085E10E941E0227
:10090000E9EBF0E080818E7F808380818D7F808322
:1009100088E48093B80085E48093BC000895CF9369
:10092000DF9391E0909308038823B9F0C091B80059
:10093000D091BA008091BC008A7B8093BC0060E0BB
:1009400084E10E941E0260E085E10E941E020E9476
:100950007104D093BA00C093B800DF91CF9108958D
:100960000895E091A1038091A003E81730F4F0E02E
:10097000E851FD4F808190E008958FEF9FEF08953B
:100980009091A1038091A0032FEF3FEF981748F4B7
:10099000E92FF0E0E851FD4F208130E09F5F909318
:1009A000A103C90108958091A0039091A103891B1F
:1009B000990B0895CF92DF92EF92FF920F931F93BE
:1009C000CF93DF937C01CB018A012091780322230E
:1009D00089F0EB016B01C40ED51ECC15DD0569F065
:1009E0006991D701ED91FC910190F081E02DC70153
:1009F0001995F3CF642F0E944A04C801DF91CF916B
:100A00001F910F91FF90EF90DF90CF900895CF93BB
:100A1000DF931F92CDB7DEB769832091780322233D
:100A2000F9F020919E03203258F021E030E0FC01E3
:100A30003383228390E080E00F90DF91CF9108957F
:100A400080919F03E82FF0E0E758FC4F9981908355
:100A50008F5F80939F0380939E0381E090E0ECCFB3
:100A600061E0CE0101960E944A04F7CFCF92DF9257
:100A7000EF92FF920F931F93CF93DF93FC01C481FA
:100A800021E020937803C093990310929F03109262
:100A90009E038385682B85EE94E00E940705D09124
:100AA0009E03D13208F092C00E94AA026B017C0121
:100AB00080917203811165C082E08093720381E0AE
:100AC000809371038FEF8093700310926F03D09324
:100AD0006E03A9E7B3E0EEE4F3E080E0D81385C04D
:100AE00010924D0380914D03CC0FC82BC0934D0342
:100AF00080914C03813009F07CC010924C030E941D
:100B0000AA026B017C0180914D038093BB00809110
:100B1000740390917503A0917603B0917703892BAC
:100B20008A2B8B2B99F00E94AA02009174031091DA
:100B3000750320917603309177036C197D098E0936
:100B40009F090617170728073907E0F18091BC00B5
:100B500083FDD9CF85EC8093BC000E94AA026B0173
:100B60007C0180917203823009F445C0809170034A
:100B70008F3F61F180917003803241F18091700369
:100B800025C08091740390917503A0917603B09174
:100B90007703892B8A2B8B2B09F48ACF0E94AA0218
:100BA00000917403109175032091760330917703BF
:100BB0006C197D098E099F09061717072807390741
:100BC00008F076CF809173030E948F0410929F03E8
:100BD00010929E0310927803DF91CF911F910F9195
:100BE000FF90EF90DF90CF9008959D9191938F5F4C
:100BF00075CF85EEB0CF8091740390917503A0916D
:100C00007603B0917703892B8A2B8B2B09F4A9CF1C
:100C10000E94AA020091740310917503209176033B
:100C2000309177036C197D098E099F090617170704
:100C30002807390708F095CFC5CF90E080E00895E8
:100C4000CF93DF93EC018A859B85AC85BD858E8330
:100C50009F83A887B9870E9401036A837B838C8363
:100C60009D8381E089838883DF91CF910895CF931D
:100C7000DF93EC018E819F81A885B9858A839B8350
:100C8000AC83BD830E9401036A877B878C879D8725
:100C900081E089838883DF91CF910895AF92BF92DD
:100CA000CF92DF92EF92FF920F931F93CF93DF9338
:100CB0006B017A01EC01CC51DD4F28813CE0389F7B
:100CC0008001399F100D1124A0908105B12C27FFC0
:100CD0001FC0FB011182108288818F5F8883888109
:100CE0009801280F311D87FD3A95F6012A153B051D
:100CF0001CF488818C30C4F1808191810496803409
:100D00009C4908F473C0F60180819181049670C0FB
:100D100088819801280F311D87FD3A952A153B05DA
:100D2000DCF68881A801480F511D87FD5A95FA010C
:100D3000EE0FFF1FE40FF51FEF50FB4F808186FF82
:100D4000CBCF8881F801E80FF11D87FDFA95CF011F
:100D5000EE0FFF1FE80FF91FEF50FB4F808160E09F
:100D60008F730E941E02B8CF808191812881A801D3
:100D7000420F511D27FD5A959A01FA01EE0FFF1FF0
:100D8000E20FF31FEF50FB4F21813281820F931F3F
:100D9000F7019183808388819801280F311D87FD99
:100DA0003A95F901EE0FFF1FE20FF31FEF50FB4FD3
:100DB000808186FF22C08881080F111D87FD1A954A
:100DC000F801EE0FFF1FE00FF11FEF50FB4F808186
:100DD00061E08F73DF91CF911F910F91FF90EF90A2
:100DE000DF90CF90BF90AF900C941E0280E49CE9FE
:100DF000F701918380838FEF8883DF91CF911F91DB
:100E00000F91FF90EF90DF90CF90BF90AF9008953B
:100E10000F931F93CF938C01C62F0E9436056C2F22
:100E20006460C8010E9436056C2F6B7FC8010E9468
:100E3000360583EC90E00197F1F7CF911F910F9168
:100E400008950F931F93CF93DF938C01D62FC42F58
:100E5000607F642B0E94080780E1D89FB0011124B5
:100E60006C2BC801DF91CF911F910F910C94080753
:100E700040E060E88EE895E00C94210740E061E0F6
:100E80008EE895E00E9421078BE39FE10197F1F73F
:100E90000895CF93DF93823028F090919305986066
:100EA000909393058093960562E370E080E090E074
:100EB0000E94CF02609199058EE895E00E94360568
:100EC00068EE73E080E090E00E94CF0260E38EE87D
:100ED00095E00E940807CBE4D6E4CE010197F1F734
:100EE00060E38EE895E00E9408072197F1F760E340
:100EF0008EE895E00E94080783E592E00197F1F7FC
:100F000060E28EE895E00E940807609193056062B8
:100F100040E08EE895E00E94210784E080939405EC
:100F200040E06CE08EE895E00E9421070E943E07B9
:100F300082E08093950540E066E08EE895E00E94AF
:100F4000210740E062E08EE895E00E9421078BE3F4
:100F50009FE10197F1F7DF91CF91089541E00E9461
:100F6000210781E090E008952F923F924F925F9287
:100F70006F927F928F929F92AF92BF92CF92DF92A9
:100F8000EF92FF920F931F93CF93DF93D82FC92F28
:100F90008B010E94EC1624E630E040E050E00E9415
:100FA0007E1849019B01AC0160E876E988E990E090
:100FB0000E94C7196B017C01F80191828082ED2F9C
:100FC000FC2F2191822F022E000C990BC0970A97BB
:100FD000C0F32E3239F51F0180E8882E86E9982E5D
:100FE00088E9A82EB12C9AE0492E512C612C712C45
:100FF000F101C1911F010C2E000CDD0BE097CA30EE
:10100000D10580F4C501B401A30192010E947E18AC
:1010100049015A01DE010E947618C60ED71EE81E4D
:10102000F91EE6CFA5E0B0E0A70196010E946B187B
:101030006F5F7F4F8F4F9F4F23E030E040E050E0E5
:101040000E947E18F80122833383448355831682DD
:10105000DF91CF911F910F91FF90EF90DF90CF9094
:10106000BF90AF909F908F907F906F905F904F90C8
:101070003F902F9008951F93CF93DF93EC01188139
:101080001D3209F42196CE010E94EC169B01AC01A1
:10109000A4E6B0E00E946B18AB01BC01FE012991EF
:1010A000822F022E000C990BC0970A97B8F32E32AC
:1010B00031F58181082E000C990BC0978A3091057B
:1010C000F0F4AAE0A89F9001A99F300D1124C90156
:1010D000330FAA0BBB0B480F591F6A1F7B1F82815E
:1010E000082E000C990BC0978A30910540F4092E08
:1010F000000CAA0BBB0B480F591F6A1F7B1F1D3228
:1011000039F470956095509541955F4F6F4F7F4FC3
:10111000CB01BA01DF91CF911F910895FF920F93F8
:101120001F93CF93DF9340913F065091400660910B
:101130004106709142064F5F5F4F6F4F7F4F409364
:101140003F065093400660934106709342068432F6
:1011500009F4B2C2E091390685320CF0D1C08A3070
:1011600019F08D3009F0B7C2C82FEF3008F057C121
:10117000F0E0E85DF94F1082D0912706DD2309F4F5
:1011800050C180912806282F082E000C330B9FEBAE
:10119000980F963008F0C0C0275331092295207F60
:1011A00030912906832F032E000C990B4FEB430F30
:1011B000463008F0BAC0C797280F8091260628133A
:1011C0001BC180914B0690914C06A0914D06B091A9
:1011D0004E060196A11DB11D80934B0690934C06BF
:1011E000A0934D06B0934E0680913A06882399F05D
:1011F0008091430690914406A0914506B091460621
:101200000196A11DB11D8093430690934406A093BF
:101210004506B093460610913706112309F48DC098
:10122000113009F044C084EC95E00E94370682ED4D
:1012300095E00E94370680913A068823C1F187E045
:10124000EAEAF5E0ACE9B5E001900D928A95E1F7A4
:1012500087E0E1EBF5E0A3EAB5E001900D928A9515
:10126000E1F78091BA059091BB059093B905809301
:10127000B8058091BE059091BF059093BD05809300
:10128000BC050E9401036093C0057093C105809363
:10129000C2059093C30510939B0510939A0580EEA9
:1012A00095E00E9420068EEE95E00E9420060091B7
:1012B0003D0610913E06FF24F3940115110509F433
:1012C00025C2E0913D06F0913E0666A177A1F801A6
:1012D00086A197A10E94051C892B09F017C2B801AD
:1012E000C80140960E940E1C0E940103F80160A3F1
:1012F00071A382A393A3F5A2F4A202A513A5DDCF47
:101300008A3209F431CF8C3209F0E5C1909126067A
:1013100098279093260628CF8156863018F42755B3
:1013200031093CCF2053310939CF3156363018F4CA
:101330008755910941CFC0973FCF82ED95E00E943C
:10134000370680913A068823A9F187E0EAEAF5E0BA
:10135000ACE9B5E001900D928A95E1F787E0E1EB09
:10136000F5E0A3EAB5E001900D928A95E1F780914E
:10137000BA059091BB059093B9058093B80580910B
:10138000BE059091BF059093BD058093BC050E945A
:1013900001036093C0057093C1058093C2059093CB
:1013A000C30581E080939B0580939A058CEF95E0BF
:1013B0000E9420068091140690911506A0911606B1
:1013C000B09117068093100690931106A093120611
:1013D000B09313060E94010360930C0670930D06F0
:1013E00080930E0690930F0681E080930B06809306
:1013F0000A0688E196E059CF809147069091480609
:10140000A0914906B0914A060196A11DB11D809395
:10141000470690934806A0934906B0934A06D0E049
:1014200075C180913806811143C0809128068734A8
:10143000E9F560912906062E000C770B86E392E011
:101440000E94FA1B892B91F16CE372E08AE296E02C
:101450000E94051C892B21F481E0809337060AC085
:1014600060E472E08AE296E00E94051C892BF1F4A8
:101470001092370680913B0690913C0690933E0671
:1014800080933D0600913D0610913E060115110521
:1014900031F268E276E0F80186A197A10E94051C6E
:1014A00097FF2DC1F80182A593A5E8CF82E0D5CFA3
:1014B000E0913706E23009F44DC02091280622233E
:1014C00009F448C090E2E99FF0011124E82B31971C
:1014D000EC32F10508F03EC08827EE58F54F8F4FEB
:1014E0000C94E3199E0AE00AE70AEE0AF10A1F0BC0
:1014F0002D0B3A0B470BAA0AAA0AAA0AAA0AAA0A99
:10150000AA0AAA0AAA0AAA0AAA0AAA0AAA0AAA0A3B
:10151000AA0AAA0AAA0AAA0AAA0AAA0AAA0AAA0A2B
:10152000AA0AAA0A9E0AD90AE00AE70AEE0AF10AFA
:10153000F80A050B120BAA0AAA0A540B88E296E0D5
:101540000E943B086093D8057093D9058093DA0513
:101550009093DB0500913D0610913E06D091380630
:101560000115110509F45BCFE0913D06F0913E06AF
:1015700066A177A1F80186A197A10E94051C892B7D
:1015800009F04DCFF80120A531A58D2F90E08217ED
:1015900093070CF444CF2817390739F44FE050E093
:1015A00068E276E0C8010E94151CF80102A513A5A7
:1015B000D5CF81E0213409F080E080933A06CACF8C
:1015C0006AEA75E088E296E00E94B407C3CF81E042
:1015D000233509F080E08093B005BCCF61EB75E066
:1015E000F1CF81E0273509F080E08093B705B2CFD5
:1015F00088E296E00E943B086093EA057093EB0551
:101600008093EC059093ED05A5CF88E296E00E94CB
:101610003B086093F8057093F9058093FA05909361
:10162000FB0598CF88E296E00E94EC166093CA050D
:101630007093CB058093CC059093CD058BCF81E043
:1016400021330CF480E080933A06022E000C330B19
:101650003093BB052093BA057DCF88E296E00E94C7
:10166000EC166093140670931506809316069093FB
:10167000170670CF88E296E00E943B08609322062E
:1016800070932306809324069093250663CF88E207
:1016900096E00E943B0860930606709307068093CD
:1016A00008069093090656CF022E000C330B309398
:1016B000BF052093BE054ECF109239061092380612
:1016C0001092260682E08093370610922706109229
:1016D0003A06D0E028C0EE3040F491E09E0F90939F
:1016E0003906F0E0E85DF94F8083D0912706D111EB
:1016F000F0CF9091260689278093260614C0892B67
:1017000009F48DCE10923E0610923D068091380667
:101710008F5F809338061092390681E0CA3209F053
:1017200080E0809327068D2FDF91CF911F910F913D
:10173000FF900895FB0101900020E9F73197AF0178
:10174000461B570BDC01ED91FC910280F381E02DEB
:1017500019948F929F92AF92BF92EF92FF920F9344
:101760001F93CF93DF93CDB7DEB7A1970FB6F89451
:10177000DEBF0FBECDBF7C01FA01CB0119A2223022
:1017800008F42AE08E010F5D1F4F822E912CB12CA0
:10179000A12CBF01A50194010E947E18F901CA0184
:1017A0006A300CF5605DD8016E938D01232B242BDC
:1017B000252B79F790E080E0109721F0BD01C7015B
:1017C0000E949A0BA1960FB6F894DEBF0FBECDBF54
:1017D000DF91CF911F910F91FF90EF90BF90AF904D
:1017E0009F908F900895695CDECF462F50E070E0A7
:1017F00060E02AE00C94A90BCF93DF93BC0188E44E
:1018000094E00E949A0BEC0164E472E088E494E0B6
:101810000E949A0B8C0F9D1FDF91CF9108952F92FC
:101820003F924F925F926F927F928F929F92AF9270
:10183000BF92CF92DF92EF92FF921F93CF93DF93ED
:10184000EC016A017B01722EAB019601CB01B6015E
:101850000E94C21967E472E0811126C04601570157
:10186000E894B7F82FEF3FEF4FE75FE7C501B4010A
:101870000E94C21981110CC02FEF3FEF4FE75FE7C5
:10188000C501B4010E9428176BE472E0181664F0D9
:101890002FEF3FEF4FE75FE4C701B6010E94BD198C
:1018A0001816B4F46FE472E0CE01DF91CF911F916E
:1018B000FF90EF90DF90CF90BF90AF909F908F9070
:1018C0007F906F905F904F903F902F900C949A0B69
:1018D0002FEF3FEF4FE75FECC701B6010E942817DB
:1018E00087FDE0CF20E030E0A901C701B6010E94EA
:1018F0002817312C212C87FF0DC0E881F981019038
:10190000F081E02D6DE2CE0119951C01F7FAF094FB
:10191000F7F8F09410E060E070E080E09FE371166B
:1019200041F020E030E040E251E40E941C191F5FCA
:10193000F6CFA70196010E94B0182B013C010E942E
:101940008E194B015C012AE0BC01A401CE010E946A
:10195000A90B7C01E20CF31C1123E1F1C501B401D8
:101960000E942D179B01AC01C301B2010E94AF1868
:101970004B015C01E881F9810190F081E02D6EE27C
:10198000CE011995E80EF91E115020F120E030E04B
:1019900040E251E4C501B4010E948E172B013C01C5
:1019A0000E948E194B01B12CA12C2AE0B501A40193
:1019B000CE010E94A90BE80EF91EC501B4010E94D8
:1019C0002D179B01AC01C301B2010E94AF184B015E
:1019D0005C01DACFC701DF91CF911F91FF90EF90AB
:1019E000DF90CF90BF90AF909F908F907F906F903F
:1019F0005F904F903F902F9008950C949A0B0F9307
:101A00001F93CF93DF93EC0188819981009759F060
:101A10002A813B812617370730F081E0DF91CF9193
:101A20001F910F9108958B016F5F7F4F0E94101BD4
:101A3000009759F0998388831B830A832C813D8109
:101A4000232B59F7FC011082E8CF80E0E7CF85ED2A
:101A50008093BC008091740390917503A0917603EC
:101A6000B09177030796A11DB11D23E0B695A79508
:101A7000979587952A95D1F72091BC0024FD03C046
:101A80001092720308954091740350917503609110
:101A9000760370917703452B462B472B69F300970C
:101AA000A105B10541F02AE22A95F1F700C001979E
:101AB000A109B109E1CF809173030C948F041F92A7
:101AC0000F920FB60F9211242F933F938F939F93F2
:101AD000AF93BF938091A3039091A403A091A5031A
:101AE000B091A6033091A20323E0230F2D3758F5C0
:101AF0000196A11DB11D2093A2038093A30390938F
:101B0000A403A093A503B093A6038091A70390918B
:101B1000A803A091A903B091AA030196A11DB11D2C
:101B20008093A7039093A803A093A903B093AA035B
:101B3000BF91AF919F918F913F912F910F900FBEC9
:101B40000F901F90189526E8230F0296A11DB11D36
:101B5000D2CF1F920F920FB60F9211240BB60F9295
:101B60002F933F934F935F936F937F938F939F93A5
:101B7000AF93BF93EF93FF938BEA93E00E948D03A3
:101B8000FF91EF91BF91AF919F918F917F916F9155
:101B90005F914F913F912F910F900BBE0F900FBE11
:101BA0000F901F9018951F920F920FB60F9211244D
:101BB0000BB60F922F938F939F93EF93FF93E09128
:101BC000BB03F091BC038081E091C103F091C2039B
:101BD00082FD1DC090818091C4038F5F8F7320911F
:101BE000C503821741F0E091C403F0E0E555FC4FD6
:101BF000958F8093C403FF91EF919F918F912F91C7
:101C00000F900BBE0F900FBE0F901F901895808104
:101C1000F2CF1F920F920FB60F9211240BB60F92B4
:101C20002F933F934F935F936F937F938F939F93E4
:101C3000AF93BF93EF93FF9388E494E00E948D03EA
:101C4000FF91EF91BF91AF919F918F917F916F9194
:101C50005F914F913F912F910F900BBE0F900FBE50
:101C60000F901F9018951F920F920FB60F9211248C
:101C70000BB60F922F938F939F93EF93FF93E09167
:101C80005804F09159048081E0915E04F0915F0462
:101C900082FD1DC09081809161048F5F8F732091C0
:101CA0006204821741F0E0916104F0E0E85BFB4FD1
:101CB000958F80936104FF91EF919F918F912F9168
:101CC0000F900BBE0F900FBE0F901F901895808144
:101CD000F2CF1F920F920FB60F9211240BB60F92F4
:101CE0002F933F934F935F936F937F938F939F9324
:101CF000AF93BF93EF93FF938091B900887F8036B5
:101D000009F44DC008F040C0883209F4A9C028F594
:101D1000803109F49DC0C8F4882309F4FBC08830E1
:101D200009F496C0FF91EF91BF91AF919F918F9170
:101D30007F916F915F914F913F912F910F900BBECB
:101D40000F900FBE0F901F901895883109F488C02E
:101D5000803241F78093700314C0803409F49DC031
:101D600040F48033B9F38833E9F68093700385EC4F
:101D7000B0C0803509F485C0883509F496C0883430
:101D800089F60E94270DCECF883909F48CC038F52A
:101D9000883729F050F4883611F0803719F683E03F
:101DA0008093720310924B0357C0883809F47BC0AC
:101DB000803919F0803809F0B5CF80914B0380321B
:101DC00008F071C0E0914B0381E08E0F80934B03CC
:101DD0008091BB00F0E0E55DFC4F80833DC0803B1F
:101DE00039F0E0F4803A09F479C0883A09F09ACFE2
:101DF00084E08093720310922A0310922903E091E9
:101E00009C03F0919D0319958091290381110FC0C6
:101E100081E0809329031092090309C0803C09F4F2
:101E2000A6CF883C09F4A3CF883B09F07BCFE09193
:101E30002A0381E08E0F80932A03F0E0E75FFC4FD6
:101E400080818093BB0090912A038091290329C04F
:101E500080914D038093BB0085EC8093BC0062CFE2
:101E600090916F0380916E03981758F5E0916F037E
:101E700081E08E0F80936F03F0E0E25BFC4F808186
:101E8000E9CFE0916F0381E08E0F80936F03809123
:101E9000BB00F0E0E25BFC4F808390916F03809188
:101EA0006E039817C8F285E8D8CFE0916F0381E000
:101EB0008E0F80936F038091BB00F0E0E25BFC4FDC
:101EC00080838091710381115CCF81E080934C030A
:101ED00084EA8093BC001092720324CF85EC809337
:101EE000BC001092720380914B03803230F4E09179
:101EF0004B03F0E0E55DFC4F108260914B0370E016
:101F0000E0919A03F0919B038BE293E01995109274
:101F10004B0308CF1092700334CF1F920F920FB66D
:101F20000F9211240BB60F922F933F934F935F9311
:101F30006F937F938F939F93AF93BF93EF93FF9391
:101F400048E251E064E271E090E080E00E944E06D9
:101F5000FF91EF91BF91AF919F918F917F916F9181
:101F60005F914F913F912F910F900BBE0F900FBE3D
:101F70000F901F9018951F920F920FB60F92112479
:101F80000BB60F922F933F934F935F936F937F9373
:101F90008F939F93AF93BF93EF93FF9348EA50E0E3
:101FA00064EA70E083E090E00E944E06FF91EF91BA
:101FB000BF91AF919F918F917F916F915F914F9161
:101FC0003F912F910F900BBE0F900FBE0F901F905F
:101FD00018951F920F920FB60F9211240BB60F9205
:101FE0002F933F934F935F936F937F938F939F9321
:101FF000AF93BF93EF93FF9348E950E064E970E03B
:1020000082E090E00E944E06FF91EF91BF91AF9168
:102010009F918F917F916F915F914F913F912F9100
:102020000F900BBE0F900FBE0F901F9018951F9230
:102030000F920FB60F9211240BB60F922F933F936E
:102040004F935F936F937F938F939F93AF93BF93C0
:10205000EF93FF9348E850E064E870E081E090E09F
:102060000E944E06FF91EF91BF91AF919F918F918A
:102070007F916F915F914F913F912F910F900BBE88
:102080000F900FBE0F901F901895EF92FF920F9335
:102090001F93CF93DF93EC017B01198218821B827F
:1020A0001A821D821C82FB0101900020E9F7319702
:1020B0008F01061B170BB8010E94FF0C2881398184
:1020C000811113C02115310519F0C9010E94871A29
:1020D000198218821D821C821B821A82DF91CF9185
:1020E0001F910F91FF90EF9008951D830C83B7010E
:1020F000C901DF91CF911F910F91FF90EF900C9448
:102100000E1C1092AE031092AD0388EE93E0A0E097
:10211000B0E08093AF039093B003A093B103B0936A
:10212000B2032AE032E03093AC032093AB034DECD2
:1021300050E05093B8034093B7034CEC50E05093F9
:10214000BA034093B90348EC50E05093BC0340936A
:10215000BB0349EC50E05093BE034093BD034AECEF
:1021600050E05093C0034093BF034EEC50E05093B7
:10217000C2034093C1031092C4031092C50310928E
:10218000C6031092C70310924B0410924A04809326
:102190004C0490934D04A0934E04B0934F0430939D
:1021A00049042093480425EC30E0309355042093F3
:1021B000540424EC30E0309357042093560420EC70
:1021C00030E0309359042093580421EC30E03093F0
:1021D0005B0420935A0422EC30E030935D0420939A
:1021E0005C0426EC30E030935F0420935E04109290
:1021F00061041092620410926304109264041092BD
:10220000E8041092E7048093E9049093EA04A09311
:10221000EB04B093EC048CE192E09093E60480939D
:10222000E50480918105803308F005C191E0980FA5
:102230009093810580934F0690E0FC01EE0FFF1F05
:10224000E80FF91FEF50FB4F88EB9BE092838183EF
:1022500010929A0510929B0510929D0510929C0574
:1022600010929E0510929F051092A0051092A10554
:102270001092A2051092A4051092A3051092A50534
:102280001092A6051092A7051092A8051092A90514
:102290001092AB051092AA051092AC051092AD05F4
:1022A0001092AE051092AF051092B0051092B205D3
:1022B0001092B1051092B3051092B4051092B505B5
:1022C0001092B6051092B70580E390E09093B9059F
:1022D0008093B8058EE490E09093BD058093BC0593
:1022E0001092C4051092C5051092C6051092C7053C
:1022F0001092C8051092C9051092D2051092D3050C
:102300001092D4051092D5051092D6051092D705DB
:102310001092E0051092E1051092E6051092E70593
:102320001092E8051092E9051092EE051092EF0563
:102330001092F4051092F5051092F6051092F7052B
:102340001092FC051092FD051092020610920306F1
:10235000109204061092050610920A0610920B06BF
:102360001092100610921106109212061092130687
:10237000109218061092190610921E0610921F064F
:10238000109220061092210610922606109227061F
:1023900082E0809337061092380610923906109228
:1023A0003A0610923C0610923B0610923E0610929E
:1023B0003D0610923F061092400610924106109280
:1023C000420610924306109244061092450610925F
:1023D000460610924706109248061092490610923F
:1023E0004A0610924B0610924C0610924D0610921F
:1023F0004E061092280610929105109290052EE23A
:1024000032E030938F0520938E0590E290939205F1
:1024100090E190939705809398051092990566E452
:1024200072E088E895E00E94451063E572E082E87A
:1024300095E00C9445108FEF80934F0609CFCF9312
:10244000DF931F921F92CDB7DEB7789484B5826078
:1024500084BD84B5816084BD85B5826085BD85B548
:10246000816085BD80916E00816080936E001092C6
:102470008100809181008260809381008091810041
:1024800081608093810080918000816080938000D2
:102490008091B10084608093B1008091B000816030
:1024A0008093B00080919100826080939100809130
:1024B0009100816080939100809190008160809371
:1024C00090008091A10082608093A1008091A10082
:1024D00081608093A1008091A00081608093A00022
:1024E000809121018260809321018091210181608E
:1024F000809321018091200181608093200180914F
:102500007A00846080937A0080917A008260809360
:102510007A0080917A00816080937A0080917A00BD
:10252000806880937A001092C10080914F068033BA
:1025300008F069C0E7E3F2E02491E1EFF1E0849173
:10254000882399F090E0880F991FFC01EC54FE4F0E
:10255000A591B491FC01E253FE4F859194918FB700
:10256000F894EC91E22BEC938FBF80914F06282FCB
:1025700030E0F901EE0FFF1FE20FF31FEF50FB4FAA
:102580009081907C99609083109250061092510631
:102590002CE0622F0E94D719829FB001112430E0F5
:1025A00020E0AB01420F531FFA01EE0FFF1FE40FB3
:1025B000F51FEF50FB4F908196FD17C02F5F3F4FE7
:1025C0002C30310571F7813009F0ACC010928000D9
:1025D00082E0809381001092850010928400B19A6D
:1025E00080916F00826080936F00E0914F068E2F84
:1025F00090E0FC01EE0FFF1FE80FF91FEF50FB4FBB
:1026000080818064808390E080E00E94B90188E44A
:1026100094E00E9492018BEA93E00E94920182E092
:102620000E9449071092A1031092A00310929F03E9
:1026300010929E030E9471048DE093E090939D039D
:1026400080939C038EE093E090939B0380939A0386
:1026500010929305809198050E94490788E0809325
:10266000990560E08EE895E00E9436050E943E07DD
:102670000E9438076DE572E08EE895E00E94FD0C3F
:102680008BEC92E00E94FC0B84E6C82ED12CE12C4E
:10269000F12C88E494E00E946D03892B09F4D2C2E6
:1026A00088E494E00E944B038A3019F08D3009F0E1
:1026B00004C36BE672E088E494E00E94FD0C409154
:1026C0008C0550918D05609188057091890588E48D
:1026D00094E00E940F0364E472E088E494E00E94B6
:1026E0009A0B20918C0530918D05809186059091F3
:1026F00087052817390709F0B3C2809188059091A2
:1027000089056091820570918305009709F4FDC2E7
:102710006115710599F5232B09F405C3FC0180812E
:1027200090E0FEC2823061F410929000809391009C
:10273000109295001092940088BB8093710055CF41
:10274000833069F41092A00082E08093A10010927F
:10275000A5001092A40089BB8093720046CF81111E
:1027600044CF1092200182E0809321011092250134
:10277000109224018ABB8093730037CF0E94051CFE
:10278000CFC280919A05882309F4FBC28091C405C9
:10279000882309F4F6C28091D205882309F4F1C296
:1027A00010929B0560919E0570919F058091A005F8
:1027B0009091A1050E942D1728E23BE64EE65EE4CB
:1027C0000E941C194B015C0160919C0570919D0554
:1027D00090E080E00E942D179B01AC01C501B4017F
:1027E0000E94B0184B015C018091A205882321F062
:1027F000B7FAB094B7F8B0946091A5057091A605AA
:102800008091A7059091A8050E942D1728E23BE62C
:102810004EE65EE40E941C192B013C016091A30569
:102820007091A40590E080E00E942D179B01AC01FF
:10283000C301B2010E94B0182B013C018091A9058F
:10284000882321F077FA709477F870948CE892E0FE
:102850000E94FC0B66E972E088E494E00E94FD0CA3
:1028600026E0B501A40188E494E00E940F0C64E422
:1028700072E088E494E00E949A0B6CE972E088E4CC
:1028800094E00E94FD0C26E0B301A20188E494E0EC
:102890000E940F0C64E472E088E494E00E949A0BBA
:1028A00062EA72E088E494E00E94FD0C1092C50593
:1028B0006091C6057091C7058091C8059091C905C2
:1028C000A70196010E947E18CA01B901A7019601CD
:1028D0000E947E1888E494E00E94F50B69EA72E099
:1028E00088E494E00E94FD0C1092C5056091C60535
:1028F0007091C7058091C8059091C90520E137E224
:1029000040E050E00E947E18622F88E494E00E942C
:10291000F50B69EA72E088E494E00E94FD0C1092E5
:10292000C5056091C6057091C7058091C805909155
:10293000C905A70196010E947E186053784FAB012C
:1029400070E060E02AE088E494E00E94A90B64E46F
:1029500072E088E494E00E949A0B6BEA72E088E4EB
:1029600094E00E94FD0C1092D3056091D405709103
:10297000D5058091D6059091D70520E432E44FE04B
:1029800050E00E947E18622F88E494E00E94F50BCC
:1029900064ED72E088E494E00E94FD0C1092D3058F
:1029A0006091D4057091D5058091D6059091D70599
:1029B00020E137E240E050E00E947E18CA01B901F0
:1029C000A70196010E947E1888E494E00E94F50B0E
:1029D00064ED72E088E494E00E94FD0C1092D3054F
:1029E0006091D4057091D5058091D6059091D70559
:1029F000A70196010E947E18CA01B901A70196019C
:102A00000E947E1888E494E00E94F50B64E472E072
:102A100088E494E00E949A0B84E792E00E94FC0B09
:102A20000E943E070E94380762EB72E08EE895E054
:102A30000E94FD0C22E0B501A4018EE895E00E9401
:102A40000F0C68EB7BE080E090E00E94CF020E94D8
:102A5000380767EB72E08EE895E00E94FD0C22E0FB
:102A6000B301A2018EE895E00E940F0C68EB7BE0B9
:102A700080E090E00E94CF020E943E070E9438074B
:102A80006CEB72E08EE895E00E94FD0C1092C5059B
:102A90006091C6057091C7058091C8059091C905E0
:102AA000A70196010E947E18CA01B901A7019601EB
:102AB0000E947E188EE895E00E94F50B69EA72E0AC
:102AC0008EE895E00E94FD0C1092C5056091C60548
:102AD0007091C7058091C8059091C90520E137E242
:102AE00040E050E00E947E18622F8EE895E00E9440
:102AF000F50B68EB7BE080E090E00E94CF020E9443
:102B0000380762EC72E08EE895E00E94FD0C1092AE
:102B1000D3056091D4057091D5058091D60590912B
:102B2000D70520E432E44FE050E00E947E182A30BE
:102B300030F468EC72E08EE895E00E94FD0C109293
:102B4000D3056091D4057091D5058091D6059091FB
:102B5000D70520E432E44FE050E00E947E18622F57
:102B60008EE895E00E94F50B64ED72E08EE895E04A
:102B70000E94FD0C1092D3056091D4057091D5058B
:102B80008091D6059091D70520E137E240E050E0F2
:102B90000E947E18CA01B901A70196010E947E1801
:102BA0006A3030F468EC72E08EE895E00E94FD0C2B
:102BB0001092D3056091D4057091D5058091D6050A
:102BC0009091D70520E137E240E050E00E947E1866
:102BD000CA01B901A70196010E947E188EE895E00E
:102BE0000E94F50B68EB7BE080E090E00E94CF0252
:102BF0008AEC92E00E94FC0B0E943E076DE572E0B9
:102C00008EE895E00E94FD0C70E060E088E895E0B9
:102C10000E94FF0C2091880530918905811143C0E5
:102C20002115310519F0C9010E94871A10928905F2
:102C30001092880510928D0510928C0510928B05CC
:102C400010928A058BEA93E00E946D03892B09F4A8
:102C500059C08BEA93E00E944B030E948E08F2CF8A
:102C600086ED92E00E94FC0B84E792E00E94FC0B50
:102C70000E943E0766ED72E08EE895E00E94FD0C32
:102C800060ED77E080E090E00E94CF020E943E0776
:102C90006DE572E08EE895E00E94FD0C8AEC92E012
:102CA0000E94FC0BB1CF10928D0510928C0566E44A
:102CB00072E0C9010E940E1CC5CF89831A82A090C0
:102CC0008C05B0908D052FEFA21AB20AB50188E8E5
:102CD00095E00E94FF0C882309F4B4CF2091880569
:102CE0003091890580918C0590918D05BE016F5FB3
:102CF0007F4F820F931F0E940E1CB0928D05A092F1
:102D00008C05A0CF0E941C04C4CC6115710559F03C
:102D1000232B49F0FB01808190E0919581959109E9
:102D2000892B09F09DCF86E792E00E94FC0B0E9460
:102D30003E070E94380766E772E08EE895E00E9441
:102D4000FD0C8AE590E00E94B90168EB7BE080E031
:102D500090E00E94CF0290E080E00E94B9010E94C2
:102D60003E0765E872E08EE895E00E94FD0C68EE93
:102D700073E080E090E00E94CF020E9401034B01CB
:102D80005C010E940103681979098A099B09683866
:102D900073418105910508F02BCF8BEA93E00E94E7
:102DA0006D03892B09F4EDCC8BEA93E00E944B0371
:102DB0000E948E08F2CF8091820590918305009742
:102DC00011F00E94871A80918805909189050097DB
:102DD00011F00C94871A08951F93FC0199278827F6
:102DE000BC01E89411911032E9F3193010F01E3053
:102DF000C8F31B3251F01D3249F4689406C00E949A
:102E00001317610F711D811D911D119110531A30FF
:102E1000B0F33EF490958095709561957F4F8F4FFC
:102E20009F4F1F910895592F482F372F262F660F38
:102E3000771F881F991F660F771F881F991F620FC2
:102E4000731F841F951F660F771F881F991F089592
:102E50000E946A1708F481E00895E89409C097FB7E
:102E60003EF490958095709561957F4F8F4F9F4F61
:102E70009923A9F0F92F96E9BB279395F6958795A5
:102E800077956795B795F111F8CFFAF4BB0F11F468
:102E900060FF1BC06F5F7F4F8F4F9F4F16C088230F
:102EA00011F096E911C0772321F09EE8872F762F45
:102EB00005C0662371F096E8862F70E060E02AF086
:102EC0009A95660F771F881FDAF7880F9695879572
:102ED00097F90895990F0008550FAA0BE0E8FEEF47
:102EE00016161706E807F907C0F012161306E407CE
:102EF000F50798F0621B730B840B950B39F40A26C7
:102F000061F0232B242B252B21F408950A2609F4A4
:102F1000A140A6958FEF811D811D08950E94A117E4
:102F20000C9412180E94041838F00E940B1820F01C
:102F3000952311F00C94FB170C94011811240C9498
:102F400046180E94231870F3959FC1F3950F50E027
:102F5000551F629FF001729FBB27F00DB11D639F4B
:102F6000AA27F00DB11DAA1F649F6627B00DA11DF1
:102F7000661F829F2227B00DA11D621F739FB00D97
:102F8000A11D621F839FA00D611D221F749F332707
:102F9000A00D611D231F849F600D211D822F762FA0
:102FA0006A2F11249F5750409AF0F1F088234AF07D
:102FB000EE0FFF1FBB1F661F771F881F91505040E9
:102FC000A9F79E3F510580F00C94FB170C9446180E
:102FD0005F3FE4F3983ED4F3869577956795B79570
:102FE000F795E7959F5FC1F7FE2B880F911D96958A
:102FF000879597F9089597F99F6780E870E060E0FA
:1030000008959FEF80EC089500240A941616170681
:1030100018060906089500240A94121613061406C9
:1030200005060895092E0394000C11F4882352F02C
:10303000BB0F40F4BF2B11F460FF04C06F5F7F4FE4
:103040008F4F9F4F089557FD9058440F551F59F0CB
:103050005F3F71F04795880F97FB991F61F09F3F85
:1030600079F087950895121613061406551FF2CFAE
:103070004695F1DF08C0161617061806991FF1CFFE
:1030800086957105610508940895E894BB27662725
:103090007727CB0197F90895052E97FB1EF400942E
:1030A0000E94631857FD07D00E947E1807FC03D0CA
:1030B0004EF40C94631850954095309521953F4FF0
:1030C0004F4F5F4F089590958095709561957F4F14
:1030D0008F4F9F4F08950E94A018A59F900DB49FF9
:1030E000900DA49F800D911D11240895B7FF0C949D
:1030F0006B180E946B18821B930B0895A1E21A2E85
:10310000AA1BBB1BFD010DC0AA1FBB1FEE1FFF1F8B
:10311000A217B307E407F50720F0A21BB30BE40BDB
:10312000F50B661F771F881F991F1A9469F7609522
:103130007095809590959B01AC01BD01CF010895DC
:10314000A29FB001B39FC001A39F700D811D1124E8
:10315000911DB29F700D811D1124911D089550582D
:10316000BB27AA270E94C7180C9412180E940418A3
:1031700038F00E940B1820F039F49F3F19F426F420
:103180000C9401180EF4E095E7FB0C94FB17E92F63
:103190000E94231858F3BA1762077307840795072C
:1031A00020F079F4A6F50C9445180EF4E0950B2E5A
:1031B000BA2FA02D0B01B90190010C01CA01A00189
:1031C0001124FF27591B99F0593F50F4503E68F1E4
:1031D0001A16F040A22F232F342F4427585FF3CF25
:1031E000469537952795A795F0405395C9F77EF4F6
:1031F0001F16BA0B620B730B840BBAF09150A1F03F
:10320000FF0FBB1F661F771F881FC2F70EC0BA0FC4
:10321000621F731F841F48F4879577956795B7954C
:10322000F7959E3F08F0B0CF9395880F08F0992747
:10323000EE0F9795879508950E9430190C941218F7
:103240000E940B1858F00E94041840F029F45F3FC8
:1032500029F00C94FB1751110C9446180C9401188A
:103260000E94231868F39923B1F3552391F3951B1A
:10327000550BBB27AA2762177307840738F09F5F97
:103280005F4F220F331F441FAA1FA9F335D00E2E04
:103290003AF0E0E832D091505040E695001CCAF771
:1032A0002BD0FE2F29D0660F771F881FBB1F261734
:1032B00037074807AB07B0E809F0BB0B802DBF010B
:1032C000FF2793585F4F3AF09E3F510578F00C94DA
:1032D000FB170C9446185F3FE4F3983ED4F38695B1
:1032E00077956795B795F7959F5FC9F7880F911DFB
:1032F0009695879597F90895E1E0660F771F881FE7
:10330000BB1F621773078407BA0720F0621B730B99
:10331000840BBA0BEE1F88F7E09508950E942B18D6
:1033200088F09F5798F0B92F9927B751B0F0E1F086
:10333000660F771F881F991F1AF0BA95C9F714C036
:10334000B13091F00E944518B1E008950C944518F1
:10335000672F782F8827B85F39F0B93FCCF386956F
:1033600077956795B395D9F73EF4909580957095CC
:1033700061957F4F8F4F9F4F08950E946A1708F401
:103380008FEF08950E946A17880B990B0895DB014F
:103390008F939F930E946B18BF91AF91A29F800D56
:1033A000911DA39F900DB29F900D11240895991B1C
:1033B00079E004C0991F961708F0961B881F7A952C
:1033C000C9F780950895EE0FFF1F881F8BBF0790E8
:1033D000F691E02D19940F931F93CF93DF938230D2
:1033E000910510F482E090E0E0915406F0915506CA
:1033F00030E020E0B0E0A0E0309799F421153105ED
:1034000009F44AC0281B390B24303105D8F58A81CC
:103410009B816115710589F1FB0193838283FE0114
:1034200011C0408151810281138148175907E0F092
:103430004817590799F4109761F012960C93129758
:1034400013961C933296CF01DF91CF911F910F916C
:1034500008950093540610935506F4CF21153105B5
:1034600051F04217530738F0A901DB019A01BD0161
:10347000DF01F801C1CFEF01F9CF9093550680939A
:103480005406CDCFFE01E20FF31F8193919322509A
:10349000310939832883D7CF2091520630915306C2
:1034A000232B41F420910202309103023093530602
:1034B000209352062091000230910102211531051E
:1034C00041F42DB73EB74091040250910502241BF0
:1034D000350BE0915206F0915306E217F307A0F482
:1034E0002E1B3F0B2817390778F0AC014E5F5F4F5A
:1034F0002417350748F04E0F5F1F50935306409333
:103500005206819391939FCFF0E0E0E09CCFCF9360
:10351000DF930097E9F0FC01329713821282A091A9
:103520005406B0915506ED0130E020E01097A1F46B
:1035300020813181820F931F2091520630915306D2
:103540002817390709F061C0F0935306E09352063B
:10355000DF91CF910895EA01CE17DF07E8F54A81A0
:103560005B819E0141155105B1F7E901FB83EA83B7
:1035700049915991C40FD51FEC17FD0761F4808163
:1035800091810296840F951FE90199838883828136
:1035900093819B838A83F0E0E0E012968D919C9169
:1035A00013970097B9F52D913C911197CD01029693
:1035B000820F931F20915206309153062817390726
:1035C00039F6309751F51092550610925406B09383
:1035D0005306A0935206BCCFD383C283408151814E
:1035E000840F951FC817D90761F44E5F5F4F88811C
:1035F0009981480F591F518340838A819B8193830E
:1036000082832115310509F0B0CFF0935506E09380
:1036100054069ECFFD01DC01C0CF13821282D7CFAA
:103620004F925F926F927F928F929F92AF92BF92D2
:10363000CF92DF92EF92FF920F931F93CF93DF937E
:103640008C01009799F4CB01DF91CF911F910F91DD
:10365000FF90EF90DF90CF90BF90AF909F908F90B2
:103660007F906F905F904F900C94EB19FC01E60FE8
:10367000F71F9C0122503109E217F30708F4AEC08E
:10368000D901CD91DC911197C617D70720F1C5302C
:10369000D10578F0CE0104978617970750F0C61B26
:1036A000D70B2297C193D1936D937C93CF010E9446
:1036B000871AC801DF91CF911F910F91FF90EF9072
:1036C000DF90CF90BF90AF909F908F907F906F9042
:1036D0005F904F9008955B01AC1ABD0A4C018C0EAF
:1036E0009D1EA0915406B0915506512C412CF12CF1
:1036F000E12C109731F58091520690915306881570
:10370000990509F05CC04616570608F058C080912C
:10371000000290910102009741F48DB79EB740914D
:10372000040250910502841B950BE817F90708F075
:1037300055C0F0935306E0935206F90171836083FC
:10374000B8CF8D919C91119712966C901297139609
:103750007C901397A815B90559F56C0142E0C40E89
:10376000D11CCA14DB0420F1AC014A195B09DA014F
:103770001296159780F06282738251834083D9013B
:103780006D937C93E114F10471F0D7011396FC93CF
:10379000EE9312978ECF22968C0F9D1FF901918385
:1037A0008083F301EFCFF0935506E093540681CF69
:1037B0004816590608F42C017D01D3019ACFCB019C
:1037C0000E94EB197C01009749F0AE01B8010E94FC
:1037D000F11BC8010E94871A87016BCF10E000E03F
:1037E00068CFFB01DC0102C001900D9241505040B6
:1037F000D8F70895FC018191861721F08823D9F725
:10380000992708953197CF010895FB01DC018D912F
:10381000019080190110D9F3990B0895FB01DC0187
:1038200001900D920020E1F70895FB01DC01415069
:10383000504048F001900D920020C9F701C01D9240
:1038400041505040E0F7089511E0CEE5D1E000E0AE
:1038500006C0802FFE010E94E3192196011DCF357D
:0C386000D10780E00807A9F7F894FFCF1B
:10386C0000005606800000000000AF030F033C036D
:10387C00FC036D034B035F03000000000705DA0433
:10388C001D06B004D304C004B10400000000AE0750
:10389C000F031D064904504E41424C00524D43004B
:1038AC00474741000D0A006E616E00696E66006F3D
:1038BC00766600313233343536373839005265612B
:1038CC00647920746F205363616E0052656365697F
:1038DC007665643A200041636365737320477261B7
:1038EC006E746564004C6F636B65640047505320C5
:1038FC00446174613A004C61743A20004C6E673A32
:10390C002000446174653A20002F0054696D653ABB
:10391C0020004C61743A004C6E673A004461746547
:10392C003A0054696D653A0030000A5363616E20A9
:10393C00524649443A004163636573732044656E93
:04394C006965640045
:00000001FF
